{
  "_format": "hh-sol-artifact-1",
  "contractName": "SoulboundToken",
  "sourceName": "contracts/SoulboundToken.sol",
  "abi": [
    {
      "inputs": [],
      "stateMutability": "nonpayable",
      "type": "constructor"
    },
    {
      "anonymous": false,
      "inputs": [
        {
          "indexed": true,
          "internalType": "address",
          "name": "owner",
          "type": "address"
        },
        {
          "indexed": true,
          "internalType": "address",
          "name": "approved",
          "type": "address"
        },
        {
          "indexed": true,
          "internalType": "uint256",
          "name": "tokenId",
          "type": "uint256"
        }
      ],
      "name": "Approval",
      "type": "event"
    },
    {
      "anonymous": false,
      "inputs": [
        {
          "indexed": true,
          "internalType": "address",
          "name": "owner",
          "type": "address"
        },
        {
          "indexed": true,
          "internalType": "address",
          "name": "operator",
          "type": "address"
        },
        {
          "indexed": false,
          "internalType": "bool",
          "name": "approved",
          "type": "bool"
        }
      ],
      "name": "ApprovalForAll",
      "type": "event"
    },
    {
      "anonymous": false,
      "inputs": [
        {
          "indexed": true,
          "internalType": "address",
          "name": "previousOwner",
          "type": "address"
        },
        {
          "indexed": true,
          "internalType": "address",
          "name": "newOwner",
          "type": "address"
        }
      ],
      "name": "OwnershipTransferred",
      "type": "event"
    },
    {
      "anonymous": false,
      "inputs": [
        {
          "indexed": true,
          "internalType": "address",
          "name": "from",
          "type": "address"
        },
        {
          "indexed": true,
          "internalType": "address",
          "name": "to",
          "type": "address"
        },
        {
          "indexed": true,
          "internalType": "uint256",
          "name": "tokenId",
          "type": "uint256"
        }
      ],
      "name": "Transfer",
      "type": "event"
    },
    {
      "inputs": [],
      "name": "MAX_SUPPLY",
      "outputs": [
        {
          "internalType": "uint256",
          "name": "",
          "type": "uint256"
        }
      ],
      "stateMutability": "view",
      "type": "function"
    },
    {
      "inputs": [
        {
          "internalType": "address",
          "name": "to",
          "type": "address"
        },
        {
          "internalType": "uint256",
          "name": "tokenId",
          "type": "uint256"
        }
      ],
      "name": "approve",
      "outputs": [],
      "stateMutability": "nonpayable",
      "type": "function"
    },
    {
      "inputs": [
        {
          "internalType": "address",
          "name": "owner",
          "type": "address"
        }
      ],
      "name": "balanceOf",
      "outputs": [
        {
          "internalType": "uint256",
          "name": "",
          "type": "uint256"
        }
      ],
      "stateMutability": "view",
      "type": "function"
    },
    {
      "inputs": [
        {
          "internalType": "address",
          "name": "",
          "type": "address"
        }
      ],
      "name": "eligibleVoter",
      "outputs": [
        {
          "internalType": "bool",
          "name": "",
          "type": "bool"
        }
      ],
      "stateMutability": "view",
      "type": "function"
    },
    {
      "inputs": [
        {
          "internalType": "uint256",
          "name": "tokenId",
          "type": "uint256"
        }
      ],
      "name": "getApproved",
      "outputs": [
        {
          "internalType": "address",
          "name": "",
          "type": "address"
        }
      ],
      "stateMutability": "view",
      "type": "function"
    },
    {
      "inputs": [
        {
          "internalType": "address",
          "name": "",
          "type": "address"
        }
      ],
      "name": "hasMinted",
      "outputs": [
        {
          "internalType": "bool",
          "name": "",
          "type": "bool"
        }
      ],
      "stateMutability": "view",
      "type": "function"
    },
    {
      "inputs": [
        {
          "internalType": "address",
          "name": "_owner",
          "type": "address"
        }
      ],
      "name": "hasMintedSoulbound",
      "outputs": [
        {
          "internalType": "bool",
          "name": "",
          "type": "bool"
        }
      ],
      "stateMutability": "view",
      "type": "function"
    },
    {
      "inputs": [
        {
          "internalType": "address",
          "name": "owner",
          "type": "address"
        },
        {
          "internalType": "address",
          "name": "operator",
          "type": "address"
        }
      ],
      "name": "isApprovedForAll",
      "outputs": [
        {
          "internalType": "bool",
          "name": "",
          "type": "bool"
        }
      ],
      "stateMutability": "view",
      "type": "function"
    },
    {
      "inputs": [
        {
          "internalType": "address",
          "name": "_voter",
          "type": "address"
        }
      ],
      "name": "isEligibleVoter",
      "outputs": [
        {
          "internalType": "bool",
          "name": "",
          "type": "bool"
        }
      ],
      "stateMutability": "view",
      "type": "function"
    },
    {
      "inputs": [],
      "name": "mintSoulbound",
      "outputs": [],
      "stateMutability": "nonpayable",
      "type": "function"
    },
    {
      "inputs": [],
      "name": "name",
      "outputs": [
        {
          "internalType": "string",
          "name": "",
          "type": "string"
        }
      ],
      "stateMutability": "view",
      "type": "function"
    },
    {
      "inputs": [],
      "name": "owner",
      "outputs": [
        {
          "internalType": "address",
          "name": "",
          "type": "address"
        }
      ],
      "stateMutability": "view",
      "type": "function"
    },
    {
      "inputs": [
        {
          "internalType": "uint256",
          "name": "tokenId",
          "type": "uint256"
        }
      ],
      "name": "ownerOf",
      "outputs": [
        {
          "internalType": "address",
          "name": "",
          "type": "address"
        }
      ],
      "stateMutability": "view",
      "type": "function"
    },
    {
      "inputs": [],
      "name": "renounceOwnership",
      "outputs": [],
      "stateMutability": "nonpayable",
      "type": "function"
    },
    {
      "inputs": [
        {
          "internalType": "address",
          "name": "from",
          "type": "address"
        },
        {
          "internalType": "address",
          "name": "to",
          "type": "address"
        },
        {
          "internalType": "uint256",
          "name": "tokenId",
          "type": "uint256"
        }
      ],
      "name": "safeTransferFrom",
      "outputs": [],
      "stateMutability": "nonpayable",
      "type": "function"
    },
    {
      "inputs": [
        {
          "internalType": "address",
          "name": "from",
          "type": "address"
        },
        {
          "internalType": "address",
          "name": "to",
          "type": "address"
        },
        {
          "internalType": "uint256",
          "name": "tokenId",
          "type": "uint256"
        },
        {
          "internalType": "bytes",
          "name": "_data",
          "type": "bytes"
        }
      ],
      "name": "safeTransferFrom",
      "outputs": [],
      "stateMutability": "nonpayable",
      "type": "function"
    },
    {
      "inputs": [
        {
          "internalType": "address",
          "name": "operator",
          "type": "address"
        },
        {
          "internalType": "bool",
          "name": "approved",
          "type": "bool"
        }
      ],
      "name": "setApprovalForAll",
      "outputs": [],
      "stateMutability": "nonpayable",
      "type": "function"
    },
    {
      "inputs": [
        {
          "internalType": "bytes4",
          "name": "interfaceId",
          "type": "bytes4"
        }
      ],
      "name": "supportsInterface",
      "outputs": [
        {
          "internalType": "bool",
          "name": "",
          "type": "bool"
        }
      ],
      "stateMutability": "view",
      "type": "function"
    },
    {
      "inputs": [],
      "name": "symbol",
      "outputs": [
        {
          "internalType": "string",
          "name": "",
          "type": "string"
        }
      ],
      "stateMutability": "view",
      "type": "function"
    },
    {
      "inputs": [
        {
          "internalType": "uint256",
          "name": "tokenId",
          "type": "uint256"
        }
      ],
      "name": "tokenURI",
      "outputs": [
        {
          "internalType": "string",
          "name": "",
          "type": "string"
        }
      ],
      "stateMutability": "view",
      "type": "function"
    },
    {
      "inputs": [],
      "name": "totalSupply",
      "outputs": [
        {
          "internalType": "uint256",
          "name": "",
          "type": "uint256"
        }
      ],
      "stateMutability": "view",
      "type": "function"
    },
    {
      "inputs": [
        {
          "internalType": "address",
          "name": "from",
          "type": "address"
        },
        {
          "internalType": "address",
          "name": "to",
          "type": "address"
        },
        {
          "internalType": "uint256",
          "name": "tokenId",
          "type": "uint256"
        }
      ],
      "name": "transferFrom",
      "outputs": [],
      "stateMutability": "nonpayable",
      "type": "function"
    },
    {
      "inputs": [
        {
          "internalType": "address",
          "name": "newOwner",
          "type": "address"
        }
      ],
      "name": "transferOwnership",
      "outputs": [],
      "stateMutability": "nonpayable",
      "type": "function"
    }
  ],
  "bytecode": "0x60806040523480156200001157600080fd5b506040518060400160405280600e81526020017f536f756c626f756e64546f6b656e0000000000000000000000000000000000008152506040518060400160405280600381526020017f534254000000000000000000000000000000000000000000000000000000000081525081600090805190602001906200009692919062000171565b508060019080519060200190620000af92919062000171565b5050506000620000c46200016960201b60201c565b905080600660006101000a81548173ffffffffffffffffffffffffffffffffffffffff021916908373ffffffffffffffffffffffffffffffffffffffff1602179055508073ffffffffffffffffffffffffffffffffffffffff16600073ffffffffffffffffffffffffffffffffffffffff167f8be0079c531659141344cd1fd0a4f28419497f9722a3daafe3b4186f6b6457e060405160405180910390a35062000286565b600033905090565b8280546200017f9062000221565b90600052602060002090601f016020900481019282620001a35760008555620001ef565b82601f10620001be57805160ff1916838001178555620001ef565b82800160010185558215620001ef579182015b82811115620001ee578251825591602001919060010190620001d1565b5b509050620001fe919062000202565b5090565b5b808211156200021d57600081600090555060010162000203565b5090565b600060028204905060018216806200023a57607f821691505b6020821081141562000251576200025062000257565b5b50919050565b7f4e487b7100000000000000000000000000000000000000000000000000000000600052602260045260246000fd5b6130e380620002966000396000f3fe608060405234801561001057600080fd5b506004361061014d5760003560e01c80636352211e116100c3578063b88d4fde1161007c578063b88d4fde146103b2578063c87b56dd146103ce578063dfd9ca43146103fe578063e985e9c514610408578063f2fde38b14610438578063f3ab6c19146104545761014d565b80636352211e146102f057806370a0823114610320578063715018a6146103505780638da5cb5b1461035a57806395d89b4114610378578063a22cb465146103965761014d565b806318160ddd1161011557806318160ddd1461021c57806323b872dd1461023a57806332cb6b0c1461025657806338e21cce146102745780634225e7f4146102a457806342842e0e146102d45761014d565b806301ffc9a714610152578063025b84be1461018257806306fdde03146101b2578063081812fc146101d0578063095ea7b314610200575b600080fd5b61016c60048036038101906101679190612057565b610484565b60405161017991906124c6565b60405180910390f35b61019c60048036038101906101979190611eb0565b610566565b6040516101a991906124c6565b60405180910390f35b6101ba6105bc565b6040516101c791906124e1565b60405180910390f35b6101ea60048036038101906101e591906120a9565b61064e565b6040516101f7919061245f565b60405180910390f35b61021a6004803603810190610215919061201b565b6106d3565b005b6102246107eb565b6040516102319190612763565b60405180910390f35b610254600480360381019061024f9190611f15565b6107f1565b005b61025e610851565b60405161026b9190612763565b60405180910390f35b61028e60048036038101906102899190611eb0565b610856565b60405161029b91906124c6565b60405180910390f35b6102be60048036038101906102b99190611eb0565b610876565b6040516102cb91906124c6565b60405180910390f35b6102ee60048036038101906102e99190611f15565b6108cc565b005b61030a600480360381019061030591906120a9565b6108ec565b604051610317919061245f565b60405180910390f35b61033a60048036038101906103359190611eb0565b61099e565b6040516103479190612763565b60405180910390f35b610358610a56565b005b610362610b93565b60405161036f919061245f565b60405180910390f35b610380610bbd565b60405161038d91906124e1565b60405180910390f35b6103b060048036038101906103ab9190611fdf565b610c4f565b005b6103cc60048036038101906103c79190611f64565b610dd0565b005b6103e860048036038101906103e391906120a9565b610e32565b6040516103f591906124e1565b60405180910390f35b610406610ed9565b005b610422600480360381019061041d9190611ed9565b611092565b60405161042f91906124c6565b60405180910390f35b610452600480360381019061044d9190611eb0565b611126565b005b61046e60048036038101906104699190611eb0565b6112d2565b60405161047b91906124c6565b60405180910390f35b60007f80ac58cd000000000000000000000000000000000000000000000000000000007bffffffffffffffffffffffffffffffffffffffffffffffffffffffff1916827bffffffffffffffffffffffffffffffffffffffffffffffffffffffff1916148061054f57507f5b5e139f000000000000000000000000000000000000000000000000000000007bffffffffffffffffffffffffffffffffffffffffffffffffffffffff1916827bffffffffffffffffffffffffffffffffffffffffffffffffffffffff1916145b8061055f575061055e826112f2565b5b9050919050565b6000600960008373ffffffffffffffffffffffffffffffffffffffff1673ffffffffffffffffffffffffffffffffffffffff16815260200190815260200160002060009054906101000a900460ff169050919050565b6060600080546105cb90612988565b80601f01602080910402602001604051908101604052809291908181526020018280546105f790612988565b80156106445780601f1061061957610100808354040283529160200191610644565b820191906000526020600020905b81548152906001019060200180831161062757829003601f168201915b5050505050905090565b60006106598261135c565b610698576040517f08c379a000000000000000000000000000000000000000000000000000000000815260040161068f90612683565b60405180910390fd5b6004600083815260200190815260200160002060009054906101000a900473ffffffffffffffffffffffffffffffffffffffff169050919050565b60006106de826108ec565b90508073ffffffffffffffffffffffffffffffffffffffff168373ffffffffffffffffffffffffffffffffffffffff16141561074f576040517f08c379a000000000000000000000000000000000000000000000000000000000815260040161074690612703565b60405180910390fd5b8073ffffffffffffffffffffffffffffffffffffffff1661076e6113c8565b73ffffffffffffffffffffffffffffffffffffffff16148061079d575061079c816107976113c8565b611092565b5b6107dc576040517f08c379a00000000000000000000000000000000000000000000000000000000081526004016107d3906125c3565b60405180910390fd5b6107e683836113d0565b505050565b60085481565b6108026107fc6113c8565b82611489565b610841576040517f08c379a000000000000000000000000000000000000000000000000000000000815260040161083890612723565b60405180910390fd5b61084c838383611567565b505050565b600581565b60096020528060005260406000206000915054906101000a900460ff1681565b6000600a60008373ffffffffffffffffffffffffffffffffffffffff1673ffffffffffffffffffffffffffffffffffffffff16815260200190815260200160002060009054906101000a900460ff169050919050565b6108e783838360405180602001604052806000815250610dd0565b505050565b6000806002600084815260200190815260200160002060009054906101000a900473ffffffffffffffffffffffffffffffffffffffff169050600073ffffffffffffffffffffffffffffffffffffffff168173ffffffffffffffffffffffffffffffffffffffff161415610995576040517f08c379a000000000000000000000000000000000000000000000000000000000815260040161098c90612603565b60405180910390fd5b80915050919050565b60008073ffffffffffffffffffffffffffffffffffffffff168273ffffffffffffffffffffffffffffffffffffffff161415610a0f576040517f08c379a0000000000000000000000000000000000000000000000000000000008152600401610a06906125e3565b60405180910390fd5b600360008373ffffffffffffffffffffffffffffffffffffffff1673ffffffffffffffffffffffffffffffffffffffff168152602001908152602001600020549050919050565b610a5e6113c8565b73ffffffffffffffffffffffffffffffffffffffff16610a7c610b93565b73ffffffffffffffffffffffffffffffffffffffff1614610ad2576040517f08c379a0000000000000000000000000000000000000000000000000000000008152600401610ac9906126a3565b60405180910390fd5b600073ffffffffffffffffffffffffffffffffffffffff16600660009054906101000a900473ffffffffffffffffffffffffffffffffffffffff1673ffffffffffffffffffffffffffffffffffffffff167f8be0079c531659141344cd1fd0a4f28419497f9722a3daafe3b4186f6b6457e060405160405180910390a36000600660006101000a81548173ffffffffffffffffffffffffffffffffffffffff021916908373ffffffffffffffffffffffffffffffffffffffff160217905550565b6000600660009054906101000a900473ffffffffffffffffffffffffffffffffffffffff16905090565b606060018054610bcc90612988565b80601f0160208091040260200160405190810160405280929190818152602001828054610bf890612988565b8015610c455780601f10610c1a57610100808354040283529160200191610c45565b820191906000526020600020905b815481529060010190602001808311610c2857829003601f168201915b5050505050905090565b610c576113c8565b73ffffffffffffffffffffffffffffffffffffffff168273ffffffffffffffffffffffffffffffffffffffff161415610cc5576040517f08c379a0000000000000000000000000000000000000000000000000000000008152600401610cbc90612583565b60405180910390fd5b8060056000610cd26113c8565b73ffffffffffffffffffffffffffffffffffffffff1673ffffffffffffffffffffffffffffffffffffffff16815260200190815260200160002060008473ffffffffffffffffffffffffffffffffffffffff1673ffffffffffffffffffffffffffffffffffffffff16815260200190815260200160002060006101000a81548160ff0219169083151502179055508173ffffffffffffffffffffffffffffffffffffffff16610d7f6113c8565b73ffffffffffffffffffffffffffffffffffffffff167f17307eab39ab6107e8899845ad3d59bd9653f200f220920489ca2b5937696c3183604051610dc491906124c6565b60405180910390a35050565b610de1610ddb6113c8565b83611489565b610e20576040517f08c379a0000000000000000000000000000000000000000000000000000000008152600401610e1790612723565b60405180910390fd5b610e2c848484846117c3565b50505050565b6060610e3d8261135c565b610e7c576040517f08c379a0000000000000000000000000000000000000000000000000000000008152600401610e73906126e3565b60405180910390fd5b6000610e8661181f565b90506000815111610ea65760405180602001604052806000815250610ed1565b80610eb084611836565b604051602001610ec192919061243b565b6040516020818303038152906040525b915050919050565b600960003373ffffffffffffffffffffffffffffffffffffffff1673ffffffffffffffffffffffffffffffffffffffff16815260200190815260200160002060009054906101000a900460ff1615610f66576040517f08c379a0000000000000000000000000000000000000000000000000000000008152600401610f5d90612643565b60405180910390fd5b600560075410610fab576040517f08c379a0000000000000000000000000000000000000000000000000000000008152600401610fa290612743565b60405180910390fd5b60006007549050600160076000828254610fc59190612817565b92505081905550610fd633826119e3565b6001600960003373ffffffffffffffffffffffffffffffffffffffff1673ffffffffffffffffffffffffffffffffffffffff16815260200190815260200160002060006101000a81548160ff0219169083151502179055506001600a60003373ffffffffffffffffffffffffffffffffffffffff1673ffffffffffffffffffffffffffffffffffffffff16815260200190815260200160002060006101000a81548160ff02191690831515021790555060075460088190555050565b6000600560008473ffffffffffffffffffffffffffffffffffffffff1673ffffffffffffffffffffffffffffffffffffffff16815260200190815260200160002060008373ffffffffffffffffffffffffffffffffffffffff1673ffffffffffffffffffffffffffffffffffffffff16815260200190815260200160002060009054906101000a900460ff16905092915050565b61112e6113c8565b73ffffffffffffffffffffffffffffffffffffffff1661114c610b93565b73ffffffffffffffffffffffffffffffffffffffff16146111a2576040517f08c379a0000000000000000000000000000000000000000000000000000000008152600401611199906126a3565b60405180910390fd5b600073ffffffffffffffffffffffffffffffffffffffff168173ffffffffffffffffffffffffffffffffffffffff161415611212576040517f08c379a000000000000000000000000000000000000000000000000000000000815260040161120990612523565b60405180910390fd5b8073ffffffffffffffffffffffffffffffffffffffff16600660009054906101000a900473ffffffffffffffffffffffffffffffffffffffff1673ffffffffffffffffffffffffffffffffffffffff167f8be0079c531659141344cd1fd0a4f28419497f9722a3daafe3b4186f6b6457e060405160405180910390a380600660006101000a81548173ffffffffffffffffffffffffffffffffffffffff021916908373ffffffffffffffffffffffffffffffffffffffff16021790555050565b600a6020528060005260406000206000915054906101000a900460ff1681565b60007f01ffc9a7000000000000000000000000000000000000000000000000000000007bffffffffffffffffffffffffffffffffffffffffffffffffffffffff1916827bffffffffffffffffffffffffffffffffffffffffffffffffffffffff1916149050919050565b60008073ffffffffffffffffffffffffffffffffffffffff166002600084815260200190815260200160002060009054906101000a900473ffffffffffffffffffffffffffffffffffffffff1673ffffffffffffffffffffffffffffffffffffffff1614159050919050565b600033905090565b816004600083815260200190815260200160002060006101000a81548173ffffffffffffffffffffffffffffffffffffffff021916908373ffffffffffffffffffffffffffffffffffffffff160217905550808273ffffffffffffffffffffffffffffffffffffffff16611443836108ec565b73ffffffffffffffffffffffffffffffffffffffff167f8c5be1e5ebec7d5bd14f71427d1e84f3dd0314c0f7b2291e5b200ac8c7c3b92560405160405180910390a45050565b60006114948261135c565b6114d3576040517f08c379a00000000000000000000000000000000000000000000000000000000081526004016114ca906125a3565b60405180910390fd5b60006114de836108ec565b90508073ffffffffffffffffffffffffffffffffffffffff168473ffffffffffffffffffffffffffffffffffffffff16148061154d57508373ffffffffffffffffffffffffffffffffffffffff166115358461064e565b73ffffffffffffffffffffffffffffffffffffffff16145b8061155e575061155d8185611092565b5b91505092915050565b8273ffffffffffffffffffffffffffffffffffffffff16611587826108ec565b73ffffffffffffffffffffffffffffffffffffffff16146115dd576040517f08c379a00000000000000000000000000000000000000000000000000000000081526004016115d4906126c3565b60405180910390fd5b600073ffffffffffffffffffffffffffffffffffffffff168273ffffffffffffffffffffffffffffffffffffffff16141561164d576040517f08c379a000000000000000000000000000000000000000000000000000000000815260040161164490612563565b60405180910390fd5b611658838383611bb1565b6116636000826113d0565b6001600360008573ffffffffffffffffffffffffffffffffffffffff1673ffffffffffffffffffffffffffffffffffffffff16815260200190815260200160002060008282546116b3919061289e565b925050819055506001600360008473ffffffffffffffffffffffffffffffffffffffff1673ffffffffffffffffffffffffffffffffffffffff168152602001908152602001600020600082825461170a9190612817565b92505081905550816002600083815260200190815260200160002060006101000a81548173ffffffffffffffffffffffffffffffffffffffff021916908373ffffffffffffffffffffffffffffffffffffffff160217905550808273ffffffffffffffffffffffffffffffffffffffff168473ffffffffffffffffffffffffffffffffffffffff167fddf252ad1be2c89b69c2b068fc378daa952ba7f163c4a11628f55a4df523b3ef60405160405180910390a4505050565b6117ce848484611567565b6117da84848484611c30565b611819576040517f08c379a000000000000000000000000000000000000000000000000000000000815260040161181090612503565b60405180910390fd5b50505050565b606060405180602001604052806000815250905090565b6060600082141561187e576040518060400160405280600181526020017f300000000000000000000000000000000000000000000000000000000000000081525090506119de565b600082905060005b600082146118b0578080611899906129eb565b915050600a826118a9919061286d565b9150611886565b60008167ffffffffffffffff8111156118f2577f4e487b7100000000000000000000000000000000000000000000000000000000600052604160045260246000fd5b6040519080825280601f01601f1916602001820160405280156119245781602001600182028036833780820191505090505b5090505b600085146119d75760018261193d919061289e565b9150600a8561194c9190612a34565b60306119589190612817565b60f81b818381518110611994577f4e487b7100000000000000000000000000000000000000000000000000000000600052603260045260246000fd5b60200101907effffffffffffffffffffffffffffffffffffffffffffffffffffffffffffff1916908160001a905350600a856119d0919061286d565b9450611928565b8093505050505b919050565b600073ffffffffffffffffffffffffffffffffffffffff168273ffffffffffffffffffffffffffffffffffffffff161415611a53576040517f08c379a0000000000000000000000000000000000000000000000000000000008152600401611a4a90612663565b60405180910390fd5b611a5c8161135c565b15611a9c576040517f08c379a0000000000000000000000000000000000000000000000000000000008152600401611a9390612543565b60405180910390fd5b611aa860008383611bb1565b6001600360008473ffffffffffffffffffffffffffffffffffffffff1673ffffffffffffffffffffffffffffffffffffffff1681526020019081526020016000206000828254611af89190612817565b92505081905550816002600083815260200190815260200160002060006101000a81548173ffffffffffffffffffffffffffffffffffffffff021916908373ffffffffffffffffffffffffffffffffffffffff160217905550808273ffffffffffffffffffffffffffffffffffffffff16600073ffffffffffffffffffffffffffffffffffffffff167fddf252ad1be2c89b69c2b068fc378daa952ba7f163c4a11628f55a4df523b3ef60405160405180910390a45050565b600073ffffffffffffffffffffffffffffffffffffffff168373ffffffffffffffffffffffffffffffffffffffff1614611c20576040517f08c379a0000000000000000000000000000000000000000000000000000000008152600401611c1790612623565b60405180910390fd5b611c2b838383611dc7565b505050565b6000611c518473ffffffffffffffffffffffffffffffffffffffff16611dcc565b15611dba578373ffffffffffffffffffffffffffffffffffffffff1663150b7a02611c7a6113c8565b8786866040518563ffffffff1660e01b8152600401611c9c949392919061247a565b602060405180830381600087803b158015611cb657600080fd5b505af1925050508015611ce757506040513d601f19601f82011682018060405250810190611ce49190612080565b60015b611d6a573d8060008114611d17576040519150601f19603f3d011682016040523d82523d6000602084013e611d1c565b606091505b50600081511415611d62576040517f08c379a0000000000000000000000000000000000000000000000000000000008152600401611d5990612503565b60405180910390fd5b805181602001fd5b63150b7a0260e01b7bffffffffffffffffffffffffffffffffffffffffffffffffffffffff1916817bffffffffffffffffffffffffffffffffffffffffffffffffffffffff191614915050611dbf565b600190505b949350505050565b505050565b600080823b905060008111915050919050565b6000611df2611ded846127a3565b61277e565b905082815260208101848484011115611e0a57600080fd5b611e15848285612946565b509392505050565b600081359050611e2c81613051565b92915050565b600081359050611e4181613068565b92915050565b600081359050611e568161307f565b92915050565b600081519050611e6b8161307f565b92915050565b600082601f830112611e8257600080fd5b8135611e92848260208601611ddf565b91505092915050565b600081359050611eaa81613096565b92915050565b600060208284031215611ec257600080fd5b6000611ed084828501611e1d565b91505092915050565b60008060408385031215611eec57600080fd5b6000611efa85828601611e1d565b9250506020611f0b85828601611e1d565b9150509250929050565b600080600060608486031215611f2a57600080fd5b6000611f3886828701611e1d565b9350506020611f4986828701611e1d565b9250506040611f5a86828701611e9b565b9150509250925092565b60008060008060808587031215611f7a57600080fd5b6000611f8887828801611e1d565b9450506020611f9987828801611e1d565b9350506040611faa87828801611e9b565b925050606085013567ffffffffffffffff811115611fc757600080fd5b611fd387828801611e71565b91505092959194509250565b60008060408385031215611ff257600080fd5b600061200085828601611e1d565b925050602061201185828601611e32565b9150509250929050565b6000806040838503121561202e57600080fd5b600061203c85828601611e1d565b925050602061204d85828601611e9b565b9150509250929050565b60006020828403121561206957600080fd5b600061207784828501611e47565b91505092915050565b60006020828403121561209257600080fd5b60006120a084828501611e5c565b91505092915050565b6000602082840312156120bb57600080fd5b60006120c984828501611e9b565b91505092915050565b6120db816128d2565b82525050565b6120ea816128e4565b82525050565b60006120fb826127d4565b61210581856127ea565b9350612115818560208601612955565b61211e81612b21565b840191505092915050565b6000612134826127df565b61213e81856127fb565b935061214e818560208601612955565b61215781612b21565b840191505092915050565b600061216d826127df565b612177818561280c565b9350612187818560208601612955565b80840191505092915050565b60006121a06032836127fb565b91506121ab82612b32565b604082019050919050565b60006121c36026836127fb565b91506121ce82612b81565b604082019050919050565b60006121e6601c836127fb565b91506121f182612bd0565b602082019050919050565b60006122096024836127fb565b915061221482612bf9565b604082019050919050565b600061222c6019836127fb565b915061223782612c48565b602082019050919050565b600061224f602c836127fb565b915061225a82612c71565b604082019050919050565b60006122726038836127fb565b915061227d82612cc0565b604082019050919050565b6000612295602a836127fb565b91506122a082612d0f565b604082019050919050565b60006122b86029836127fb565b91506122c382612d5e565b604082019050919050565b60006122db602c836127fb565b91506122e682612dad565b604082019050919050565b60006122fe602c836127fb565b915061230982612dfc565b604082019050919050565b60006123216020836127fb565b915061232c82612e4b565b602082019050919050565b6000612344602c836127fb565b915061234f82612e74565b604082019050919050565b60006123676020836127fb565b915061237282612ec3565b602082019050919050565b600061238a6029836127fb565b915061239582612eec565b604082019050919050565b60006123ad602f836127fb565b91506123b882612f3b565b604082019050919050565b60006123d06021836127fb565b91506123db82612f8a565b604082019050919050565b60006123f36031836127fb565b91506123fe82612fd9565b604082019050919050565b60006124166012836127fb565b915061242182613028565b602082019050919050565b6124358161293c565b82525050565b60006124478285612162565b91506124538284612162565b91508190509392505050565b600060208201905061247460008301846120d2565b92915050565b600060808201905061248f60008301876120d2565b61249c60208301866120d2565b6124a9604083018561242c565b81810360608301526124bb81846120f0565b905095945050505050565b60006020820190506124db60008301846120e1565b92915050565b600060208201905081810360008301526124fb8184612129565b905092915050565b6000602082019050818103600083015261251c81612193565b9050919050565b6000602082019050818103600083015261253c816121b6565b9050919050565b6000602082019050818103600083015261255c816121d9565b9050919050565b6000602082019050818103600083015261257c816121fc565b9050919050565b6000602082019050818103600083015261259c8161221f565b9050919050565b600060208201905081810360008301526125bc81612242565b9050919050565b600060208201905081810360008301526125dc81612265565b9050919050565b600060208201905081810360008301526125fc81612288565b9050919050565b6000602082019050818103600083015261261c816122ab565b9050919050565b6000602082019050818103600083015261263c816122ce565b9050919050565b6000602082019050818103600083015261265c816122f1565b9050919050565b6000602082019050818103600083015261267c81612314565b9050919050565b6000602082019050818103600083015261269c81612337565b9050919050565b600060208201905081810360008301526126bc8161235a565b9050919050565b600060208201905081810360008301526126dc8161237d565b9050919050565b600060208201905081810360008301526126fc816123a0565b9050919050565b6000602082019050818103600083015261271c816123c3565b9050919050565b6000602082019050818103600083015261273c816123e6565b9050919050565b6000602082019050818103600083015261275c81612409565b9050919050565b6000602082019050612778600083018461242c565b92915050565b6000612788612799565b905061279482826129ba565b919050565b6000604051905090565b600067ffffffffffffffff8211156127be576127bd612af2565b5b6127c782612b21565b9050602081019050919050565b600081519050919050565b600081519050919050565b600082825260208201905092915050565b600082825260208201905092915050565b600081905092915050565b60006128228261293c565b915061282d8361293c565b9250827fffffffffffffffffffffffffffffffffffffffffffffffffffffffffffffffff0382111561286257612861612a65565b5b828201905092915050565b60006128788261293c565b91506128838361293c565b92508261289357612892612a94565b5b828204905092915050565b60006128a98261293c565b91506128b48361293c565b9250828210156128c7576128c6612a65565b5b828203905092915050565b60006128dd8261291c565b9050919050565b60008115159050919050565b60007fffffffff0000000000000000000000000000000000000000000000000000000082169050919050565b600073ffffffffffffffffffffffffffffffffffffffff82169050919050565b6000819050919050565b82818337600083830152505050565b60005b83811015612973578082015181840152602081019050612958565b83811115612982576000848401525b50505050565b600060028204905060018216806129a057607f821691505b602082108114156129b4576129b3612ac3565b5b50919050565b6129c382612b21565b810181811067ffffffffffffffff821117156129e2576129e1612af2565b5b80604052505050565b60006129f68261293c565b91507fffffffffffffffffffffffffffffffffffffffffffffffffffffffffffffffff821415612a2957612a28612a65565b5b600182019050919050565b6000612a3f8261293c565b9150612a4a8361293c565b925082612a5a57612a59612a94565b5b828206905092915050565b7f4e487b7100000000000000000000000000000000000000000000000000000000600052601160045260246000fd5b7f4e487b7100000000000000000000000000000000000000000000000000000000600052601260045260246000fd5b7f4e487b7100000000000000000000000000000000000000000000000000000000600052602260045260246000fd5b7f4e487b7100000000000000000000000000000000000000000000000000000000600052604160045260246000fd5b6000601f19601f8301169050919050565b7f4552433732313a207472616e7366657220746f206e6f6e20455243373231526560008201527f63656976657220696d706c656d656e7465720000000000000000000000000000602082015250565b7f4f776e61626c653a206e6577206f776e657220697320746865207a65726f206160008201527f6464726573730000000000000000000000000000000000000000000000000000602082015250565b7f4552433732313a20746f6b656e20616c7265616479206d696e74656400000000600082015250565b7f4552433732313a207472616e7366657220746f20746865207a65726f2061646460008201527f7265737300000000000000000000000000000000000000000000000000000000602082015250565b7f4552433732313a20617070726f766520746f2063616c6c657200000000000000600082015250565b7f4552433732313a206f70657261746f7220717565727920666f72206e6f6e657860008201527f697374656e7420746f6b656e0000000000000000000000000000000000000000602082015250565b7f4552433732313a20617070726f76652063616c6c6572206973206e6f74206f7760008201527f6e6572206e6f7220617070726f76656420666f7220616c6c0000000000000000602082015250565b7f4552433732313a2062616c616e636520717565727920666f7220746865207a6560008201527f726f206164647265737300000000000000000000000000000000000000000000602082015250565b7f4552433732313a206f776e657220717565727920666f72206e6f6e657869737460008201527f656e7420746f6b656e0000000000000000000000000000000000000000000000602082015250565b7f546f6b656e20697320736f756c626f756e6420616e642063616e6e6f7420626560008201527f207472616e736665727265640000000000000000000000000000000000000000602082015250565b7f596f75206861766520616c7265616479206d696e74656420796f757220536f7560008201527f6c626f756e6420746f6b656e0000000000000000000000000000000000000000602082015250565b7f4552433732313a206d696e7420746f20746865207a65726f2061646472657373600082015250565b7f4552433732313a20617070726f76656420717565727920666f72206e6f6e657860008201527f697374656e7420746f6b656e0000000000000000000000000000000000000000602082015250565b7f4f776e61626c653a2063616c6c6572206973206e6f7420746865206f776e6572600082015250565b7f4552433732313a207472616e73666572206f6620746f6b656e2074686174206960008201527f73206e6f74206f776e0000000000000000000000000000000000000000000000602082015250565b7f4552433732314d657461646174613a2055524920717565727920666f72206e6f60008201527f6e6578697374656e7420746f6b656e0000000000000000000000000000000000602082015250565b7f4552433732313a20617070726f76616c20746f2063757272656e74206f776e6560008201527f7200000000000000000000000000000000000000000000000000000000000000602082015250565b7f4552433732313a207472616e736665722063616c6c6572206973206e6f74206f60008201527f776e6572206e6f7220617070726f766564000000000000000000000000000000602082015250565b7f4d617820737570706c7920726561636865640000000000000000000000000000600082015250565b61305a816128d2565b811461306557600080fd5b50565b613071816128e4565b811461307c57600080fd5b50565b613088816128f0565b811461309357600080fd5b50565b61309f8161293c565b81146130aa57600080fd5b5056fea264697066735822122053e7beb4c2ab713ca75178f102a7e930420c2c29f43bd7bff52e9c0781197c2164736f6c63430008010033",
  "linkReferences": {},
  "deployedLinkReferences": {}
}