{
  "_format": "hh-sol-artifact-1",
  "contractName": "Lock",
  "sourceName": "contracts/Lock.sol",
  "abi": [
    {
      "inputs": [
        {
          "internalType": "uint256",
          "name": "_unlockTime",
          "type": "uint256"
        }
      ],
      "stateMutability": "payable",
      "type": "constructor"
    },
    {
      "anonymous": false,
      "inputs": [
        {
          "indexed": false,
          "internalType": "uint256",
          "name": "amount",
          "type": "uint256"
        },
        {
          "indexed": false,
          "internalType": "uint256",
          "name": "when",
          "type": "uint256"
        }
      ],
      "name": "Withdrawal",
      "type": "event"
    },
    {
      "inputs": [],
      "name": "owner",
      "outputs": [
        {
          "internalType": "address",
          "name": "",
          "type": "address"
        }
      ],
      "stateMutability": "view",
      "type": "function"
    },
    {
      "inputs": [],
      "name": "unlockTime",
      "outputs": [
        {
          "internalType": "uint256",
          "name": "",
          "type": "uint256"
        }
      ],
      "stateMutability": "view",
      "type": "function"
    },
    {
      "inputs": [],
      "name": "withdraw",
      "outputs": [],
      "stateMutability": "nonpayable",
      "type": "function"
    }
  ],
  "bytecode": "0x60806040526040516106e73803806106e7833981810160405281019061002591906100c9565b428111610067576040517f08c379a000000000000000000000000000000000000000000000000000000000815260040161005e90610115565b60405180910390fd5b336000806101000a81548173ffffffffffffffffffffffffffffffffffffffff021916908373ffffffffffffffffffffffffffffffffffffffff16021790555080600181905550506101b6565b6000815190506100c38161019f565b92915050565b6000602082840312156100db57600080fd5b60006100e9848285016100b4565b91505092915050565b60006100ff602383610135565b915061010a82610150565b604082019050919050565b6000602082019050818103600083015261012e816100f2565b9050919050565b600082825260208201905092915050565b6000819050919050565b7f556e6c6f636b2074696d652073686f756c6420626520696e207468652066757460008201527f7572650000000000000000000000000000000000000000000000000000000000602082015250565b6101a881610146565b81146101b357600080fd5b50565b610522806101c56000396000f3fe608060405234801561001057600080fd5b50600436106100415760003560e01c8063251c1aa3146100465780633ccfd60b146100645780638da5cb5b1461006e575b600080fd5b61004e61008c565b60405161005b91906103d2565b60405180910390f35b61006c610092565b005b610076610274565b6040516100839190610357565b60405180910390f35b60015481565b6001544210156100d7576040517f08c379a00000000000000000000000000000000000000000000000000000000081526004016100ce90610372565b60405180910390fd5b60008054906101000a900473ffffffffffffffffffffffffffffffffffffffff1673ffffffffffffffffffffffffffffffffffffffff163373ffffffffffffffffffffffffffffffffffffffff1614610165576040517f08c379a000000000000000000000000000000000000000000000000000000000815260040161015c90610392565b60405180910390fd5b600047905060008060009054906101000a900473ffffffffffffffffffffffffffffffffffffffff1673ffffffffffffffffffffffffffffffffffffffff16826040516101b190610342565b60006040518083038185875af1925050503d80600081146101ee576040519150601f19603f3d011682016040523d82523d6000602084013e6101f3565b606091505b5050905080610237576040517f08c379a000000000000000000000000000000000000000000000000000000000815260040161022e906103b2565b60405180910390fd5b7fbf2ed60bd5b5965d685680c01195c9514e4382e28e3a5a2d2d5244bf59411b9382426040516102689291906103ed565b60405180910390a15050565b60008054906101000a900473ffffffffffffffffffffffffffffffffffffffff1681565b6102a181610432565b82525050565b60006102b4601683610421565b91506102bf8261046e565b602082019050919050565b60006102d7601483610421565b91506102e282610497565b602082019050919050565b60006102fa601483610421565b9150610305826104c0565b602082019050919050565b600061031d600083610416565b9150610328826104e9565b600082019050919050565b61033c81610464565b82525050565b600061034d82610310565b9150819050919050565b600060208201905061036c6000830184610298565b92915050565b6000602082019050818103600083015261038b816102a7565b9050919050565b600060208201905081810360008301526103ab816102ca565b9050919050565b600060208201905081810360008301526103cb816102ed565b9050919050565b60006020820190506103e76000830184610333565b92915050565b60006040820190506104026000830185610333565b61040f6020830184610333565b9392505050565b600081905092915050565b600082825260208201905092915050565b600061043d82610444565b9050919050565b600073ffffffffffffffffffffffffffffffffffffffff82169050919050565b6000819050919050565b7f596f752063616e27742077697468647261772079657400000000000000000000600082015250565b7f596f75206172656e277420746865206f776e6572000000000000000000000000600082015250565b7f4661696c656420746f2073656e64204574686572000000000000000000000000600082015250565b5056fea26469706673582212205677f455a46f34e6d4e78324dc9d303d71377ea7d9131b98bd730a88c4da07a864736f6c63430008010033",
  "linkReferences": {},
  "deployedLinkReferences": {}
}