{
  "_format": "hh-sol-artifact-1",
  "contractName": "OnlineVoting",
  "sourceName": "contracts/OnlineVoting.sol",
  "abi": [
    {
      "inputs": [
        {
          "internalType": "address",
          "name": "_soulboundTokenAddress",
          "type": "address"
        }
      ],
      "stateMutability": "nonpayable",
      "type": "constructor"
    },
    {
      "anonymous": false,
      "inputs": [
        {
          "indexed": false,
          "internalType": "string",
          "name": "_message",
          "type": "string"
        }
      ],
      "name": "candidateEvent",
      "type": "event"
    },
    {
      "anonymous": false,
      "inputs": [
        {
          "indexed": true,
          "internalType": "uint256",
          "name": "_candidateId",
          "type": "uint256"
        }
      ],
      "name": "votedEvent",
      "type": "event"
    },
    {
      "inputs": [
        {
          "internalType": "string",
          "name": "_name",
          "type": "string"
        },
        {
          "internalType": "uint256",
          "name": "_age",
          "type": "uint256"
        },
        {
          "internalType": "string",
          "name": "_partyName",
          "type": "string"
        },
        {
          "internalType": "string",
          "name": "_partyLogo",
          "type": "string"
        },
        {
          "internalType": "string",
          "name": "_candidate_pic",
          "type": "string"
        }
      ],
      "name": "addCandidate",
      "outputs": [],
      "stateMutability": "nonpayable",
      "type": "function"
    },
    {
      "inputs": [
        {
          "internalType": "uint256",
          "name": "_candidateId",
          "type": "uint256"
        }
      ],
      "name": "addVote",
      "outputs": [],
      "stateMutability": "nonpayable",
      "type": "function"
    },
    {
      "inputs": [],
      "name": "findMaxVoteCandidate",
      "outputs": [],
      "stateMutability": "nonpayable",
      "type": "function"
    },
    {
      "inputs": [],
      "name": "getCandidate",
      "outputs": [
        {
          "components": [
            {
              "internalType": "uint256",
              "name": "candidate_id",
              "type": "uint256"
            },
            {
              "internalType": "string",
              "name": "candidate_name",
              "type": "string"
            },
            {
              "internalType": "uint256",
              "name": "candidate_voteCount",
              "type": "uint256"
            },
            {
              "internalType": "string",
              "name": "candidate_img",
              "type": "string"
            },
            {
              "internalType": "uint256",
              "name": "candidate_age",
              "type": "uint256"
            },
            {
              "internalType": "string",
              "name": "candidate_partyName",
              "type": "string"
            },
            {
              "internalType": "string",
              "name": "candidate_partyLogo",
              "type": "string"
            }
          ],
          "internalType": "struct OnlineVoting.Candidate[]",
          "name": "",
          "type": "tuple[]"
        }
      ],
      "stateMutability": "view",
      "type": "function"
    },
    {
      "inputs": [],
      "name": "getOwner",
      "outputs": [
        {
          "internalType": "address",
          "name": "",
          "type": "address"
        }
      ],
      "stateMutability": "view",
      "type": "function"
    },
    {
      "inputs": [],
      "name": "getVoters",
      "outputs": [
        {
          "internalType": "address[]",
          "name": "",
          "type": "address[]"
        }
      ],
      "stateMutability": "view",
      "type": "function"
    },
    {
      "inputs": [],
      "name": "getWinner",
      "outputs": [
        {
          "components": [
            {
              "internalType": "uint256",
              "name": "candidate_id",
              "type": "uint256"
            },
            {
              "internalType": "string",
              "name": "candidate_name",
              "type": "string"
            },
            {
              "internalType": "uint256",
              "name": "candidate_voteCount",
              "type": "uint256"
            },
            {
              "internalType": "string",
              "name": "candidate_img",
              "type": "string"
            },
            {
              "internalType": "uint256",
              "name": "candidate_age",
              "type": "uint256"
            },
            {
              "internalType": "string",
              "name": "candidate_partyName",
              "type": "string"
            },
            {
              "internalType": "string",
              "name": "candidate_partyLogo",
              "type": "string"
            }
          ],
          "internalType": "struct OnlineVoting.Candidate",
          "name": "",
          "type": "tuple"
        }
      ],
      "stateMutability": "view",
      "type": "function"
    },
    {
      "inputs": [],
      "name": "resultStatus",
      "outputs": [
        {
          "internalType": "bool",
          "name": "",
          "type": "bool"
        }
      ],
      "stateMutability": "view",
      "type": "function"
    }
  ],
  "bytecode": "0x608060405260006005553480156200001657600080fd5b5060405162001b3e38038062001b3e83398181016040528101906200003c9190620000db565b336000806101000a81548173ffffffffffffffffffffffffffffffffffffffff021916908373ffffffffffffffffffffffffffffffffffffffff16021790555080600160006101000a81548173ffffffffffffffffffffffffffffffffffffffff021916908373ffffffffffffffffffffffffffffffffffffffff1602179055505062000155565b600081519050620000d5816200013b565b92915050565b600060208284031215620000ee57600080fd5b6000620000fe84828501620000c4565b91505092915050565b600062000114826200011b565b9050919050565b600073ffffffffffffffffffffffffffffffffffffffff82169050919050565b620001468162000107565b81146200015257600080fd5b50565b6119d980620001656000396000f3fe608060405234801561001057600080fd5b50600436106100885760003560e01c806370218b851161005b57806370218b85146100ed578063893d20e81461010b5780638e7ea5b214610129578063cdd722531461014757610088565b80630383badc1461008d5780631bceb5d2146100a95780635a4122fe146100c75780635e3a950f146100d1575b600080fd5b6100a760048036038101906100a29190611063565b610165565b005b6100b1610444565b6040516100be9190611493565b60405180910390f35b6100cf61045b565b005b6100eb60048036038101906100e69190610f8c565b610568565b005b6100f56106e6565b6040516101029190611471565b60405180910390f35b610113610a58565b6040516101209190611434565b60405180910390f35b610131610a81565b60405161013e919061156e565b60405180910390f35b61014f610d63565b60405161015c919061144f565b60405180910390f35b600360003373ffffffffffffffffffffffffffffffffffffffff1673ffffffffffffffffffffffffffffffffffffffff16815260200190815260200160002060009054906101000a900460ff16156101f2576040517f08c379a00000000000000000000000000000000000000000000000000000000081526004016101e9906114ce565b60405180910390fd5b600160009054906101000a900473ffffffffffffffffffffffffffffffffffffffff1673ffffffffffffffffffffffffffffffffffffffff16634225e7f4336040518263ffffffff1660e01b815260040161024d9190611434565b60206040518083038186803b15801561026557600080fd5b505afa158015610279573d6000803e3d6000fd5b505050506040513d601f19601f8201168201806040525081019061029d9190610f63565b6102dc576040517f08c379a00000000000000000000000000000000000000000000000000000000081526004016102d3906114ee565b60405180910390fd5b600081101580156102ee575060055481105b61032d576040517f08c379a00000000000000000000000000000000000000000000000000000000081526004016103249061152e565b60405180910390fd5b6001600360003373ffffffffffffffffffffffffffffffffffffffff1673ffffffffffffffffffffffffffffffffffffffff16815260200190815260200160002060006101000a81548160ff0219169083151502179055506004600082815260200190815260200160002060020160008154809291906103ac90611772565b91905055506002339080600181540180825580915050600190039060005260206000200160009091909190916101000a81548173ffffffffffffffffffffffffffffffffffffffff021916908373ffffffffffffffffffffffffffffffffffffffff160217905550807ffff3c900d938d21d0990d786e819f29b8d05c1ef587b462b939609625b684b1660405160405180910390a250565b6000600760009054906101000a900460ff16905090565b60008054906101000a900473ffffffffffffffffffffffffffffffffffffffff1673ffffffffffffffffffffffffffffffffffffffff163373ffffffffffffffffffffffffffffffffffffffff16146104e9576040517f08c379a00000000000000000000000000000000000000000000000000000000081526004016104e09061150e565b60405180910390fd5b6000805b6005548110156105645781600460008381526020019081526020016000206002015411156105515760046000828152602001908152602001600020600201549150806006819055506001600760006101000a81548160ff0219169083151502179055505b808061055c90611772565b9150506104ed565b5050565b60008054906101000a900473ffffffffffffffffffffffffffffffffffffffff1673ffffffffffffffffffffffffffffffffffffffff163373ffffffffffffffffffffffffffffffffffffffff16146105f6576040517f08c379a00000000000000000000000000000000000000000000000000000000081526004016105ed9061150e565b60405180910390fd5b60006004600060055481526020019081526020016000209050600554816000018190555085816001019080519060200190610632929190610df1565b50600081600201819055508481600401819055508381600501908051906020019061065e929190610df1565b5082816006019080519060200190610677929190610df1565b5081816003019080519060200190610690929190610df1565b50600560008154809291906106a490611772565b91905055507f8a02df78add545d3ea462e3c498410a8c5b301e4f22e371caba10c6492f404736040516106d69061154e565b60405180910390a1505050505050565b6060600060055467ffffffffffffffff81111561072c577f4e487b7100000000000000000000000000000000000000000000000000000000600052604160045260246000fd5b60405190808252806020026020018201604052801561076557816020015b610752610e77565b81526020019060019003908161074a5790505b50905060005b600554811015610a5057600460008281526020019081526020016000206040518060e0016040529081600082015481526020016001820180546107ad9061170f565b80601f01602080910402602001604051908101604052809291908181526020018280546107d99061170f565b80156108265780601f106107fb57610100808354040283529160200191610826565b820191906000526020600020905b81548152906001019060200180831161080957829003601f168201915b50505050508152602001600282015481526020016003820180546108499061170f565b80601f01602080910402602001604051908101604052809291908181526020018280546108759061170f565b80156108c25780601f10610897576101008083540402835291602001916108c2565b820191906000526020600020905b8154815290600101906020018083116108a557829003601f168201915b50505050508152602001600482015481526020016005820180546108e59061170f565b80601f01602080910402602001604051908101604052809291908181526020018280546109119061170f565b801561095e5780601f106109335761010080835404028352916020019161095e565b820191906000526020600020905b81548152906001019060200180831161094157829003601f168201915b505050505081526020016006820180546109779061170f565b80601f01602080910402602001604051908101604052809291908181526020018280546109a39061170f565b80156109f05780601f106109c5576101008083540402835291602001916109f0565b820191906000526020600020905b8154815290600101906020018083116109d357829003601f168201915b505050505081525050828281518110610a32577f4e487b7100000000000000000000000000000000000000000000000000000000600052603260045260246000fd5b60200260200101819052508080610a4890611772565b91505061076b565b508091505090565b60008060009054906101000a900473ffffffffffffffffffffffffffffffffffffffff16905090565b610a89610e77565b600760009054906101000a900460ff16610ad8576040517f08c379a0000000000000000000000000000000000000000000000000000000008152600401610acf906114ae565b60405180910390fd5b6004600060065481526020019081526020016000206040518060e001604052908160008201548152602001600182018054610b129061170f565b80601f0160208091040260200160405190810160405280929190818152602001828054610b3e9061170f565b8015610b8b5780601f10610b6057610100808354040283529160200191610b8b565b820191906000526020600020905b815481529060010190602001808311610b6e57829003601f168201915b5050505050815260200160028201548152602001600382018054610bae9061170f565b80601f0160208091040260200160405190810160405280929190818152602001828054610bda9061170f565b8015610c275780601f10610bfc57610100808354040283529160200191610c27565b820191906000526020600020905b815481529060010190602001808311610c0a57829003601f168201915b5050505050815260200160048201548152602001600582018054610c4a9061170f565b80601f0160208091040260200160405190810160405280929190818152602001828054610c769061170f565b8015610cc35780601f10610c9857610100808354040283529160200191610cc3565b820191906000526020600020905b815481529060010190602001808311610ca657829003601f168201915b50505050508152602001600682018054610cdc9061170f565b80601f0160208091040260200160405190810160405280929190818152602001828054610d089061170f565b8015610d555780601f10610d2a57610100808354040283529160200191610d55565b820191906000526020600020905b815481529060010190602001808311610d3857829003601f168201915b505050505081525050905090565b60606002805480602002602001604051908101604052809291908181526020018280548015610de757602002820191906000526020600020905b8160009054906101000a900473ffffffffffffffffffffffffffffffffffffffff1673ffffffffffffffffffffffffffffffffffffffff1681526020019060010190808311610d9d575b5050505050905090565b828054610dfd9061170f565b90600052602060002090601f016020900481019282610e1f5760008555610e66565b82601f10610e3857805160ff1916838001178555610e66565b82800160010185558215610e66579182015b82811115610e65578251825591602001919060010190610e4a565b5b509050610e739190610eb4565b5090565b6040518060e00160405280600081526020016060815260200160008152602001606081526020016000815260200160608152602001606081525090565b5b80821115610ecd576000816000905550600101610eb5565b5090565b6000610ee4610edf846115b5565b611590565b905082815260208101848484011115610efc57600080fd5b610f078482856116cd565b509392505050565b600081519050610f1e81611975565b92915050565b600082601f830112610f3557600080fd5b8135610f45848260208601610ed1565b91505092915050565b600081359050610f5d8161198c565b92915050565b600060208284031215610f7557600080fd5b6000610f8384828501610f0f565b91505092915050565b600080600080600060a08688031215610fa457600080fd5b600086013567ffffffffffffffff811115610fbe57600080fd5b610fca88828901610f24565b9550506020610fdb88828901610f4e565b945050604086013567ffffffffffffffff811115610ff857600080fd5b61100488828901610f24565b935050606086013567ffffffffffffffff81111561102157600080fd5b61102d88828901610f24565b925050608086013567ffffffffffffffff81111561104a57600080fd5b61105688828901610f24565b9150509295509295909350565b60006020828403121561107557600080fd5b600061108384828501610f4e565b91505092915050565b600061109883836110b8565b60208301905092915050565b60006110b083836112c3565b905092915050565b6110c181611685565b82525050565b6110d081611685565b82525050565b60006110e182611606565b6110eb8185611641565b93506110f6836115e6565b8060005b8381101561112757815161110e888261108c565b975061111983611627565b9250506001810190506110fa565b5085935050505092915050565b600061113f82611611565b6111498185611652565b93508360208202850161115b856115f6565b8060005b85811015611197578484038952815161117885826110a4565b945061118383611634565b925060208a0199505060018101905061115f565b50829750879550505050505092915050565b6111b281611697565b82525050565b60006111c38261161c565b6111cd8185611663565b93506111dd8185602086016116dc565b6111e681611848565b840191505092915050565b60006111fe602083611674565b915061120982611859565b602082019050919050565b6000611221601f83611674565b915061122c82611882565b602082019050919050565b6000611244601c83611674565b915061124f826118ab565b602082019050919050565b6000611267601583611674565b9150611272826118d4565b602082019050919050565b600061128a601183611674565b9150611295826118fd565b602082019050919050565b60006112ad602283611674565b91506112b882611926565b604082019050919050565b600060e0830160008301516112db6000860182611425565b50602083015184820360208601526112f382826111b8565b91505060408301516113086040860182611425565b506060830151848203606086015261132082826111b8565b91505060808301516113356080860182611425565b5060a083015184820360a086015261134d82826111b8565b91505060c083015184820360c086015261136782826111b8565b9150508091505092915050565b600060e08301600083015161138c6000860182611425565b50602083015184820360208601526113a482826111b8565b91505060408301516113b96040860182611425565b50606083015184820360608601526113d182826111b8565b91505060808301516113e66080860182611425565b5060a083015184820360a08601526113fe82826111b8565b91505060c083015184820360c086015261141882826111b8565b9150508091505092915050565b61142e816116c3565b82525050565b600060208201905061144960008301846110c7565b92915050565b6000602082019050818103600083015261146981846110d6565b905092915050565b6000602082019050818103600083015261148b8184611134565b905092915050565b60006020820190506114a860008301846111a9565b92915050565b600060208201905081810360008301526114c7816111f1565b9050919050565b600060208201905081810360008301526114e781611214565b9050919050565b6000602082019050818103600083015261150781611237565b9050919050565b600060208201905081810360008301526115278161125a565b9050919050565b600060208201905081810360008301526115478161127d565b9050919050565b60006020820190508181036000830152611567816112a0565b9050919050565b600060208201905081810360008301526115888184611374565b905092915050565b600061159a6115ab565b90506115a68282611741565b919050565b6000604051905090565b600067ffffffffffffffff8211156115d0576115cf611819565b5b6115d982611848565b9050602081019050919050565b6000819050602082019050919050565b6000819050602082019050919050565b600081519050919050565b600081519050919050565b600081519050919050565b6000602082019050919050565b6000602082019050919050565b600082825260208201905092915050565b600082825260208201905092915050565b600082825260208201905092915050565b600082825260208201905092915050565b6000611690826116a3565b9050919050565b60008115159050919050565b600073ffffffffffffffffffffffffffffffffffffffff82169050919050565b6000819050919050565b82818337600083830152505050565b60005b838110156116fa5780820151818401526020810190506116df565b83811115611709576000848401525b50505050565b6000600282049050600182168061172757607f821691505b6020821081141561173b5761173a6117ea565b5b50919050565b61174a82611848565b810181811067ffffffffffffffff8211171561176957611768611819565b5b80604052505050565b600061177d826116c3565b91507fffffffffffffffffffffffffffffffffffffffffffffffffffffffffffffffff8214156117b0576117af6117bb565b5b600182019050919050565b7f4e487b7100000000000000000000000000000000000000000000000000000000600052601160045260246000fd5b7f4e487b7100000000000000000000000000000000000000000000000000000000600052602260045260246000fd5b7f4e487b7100000000000000000000000000000000000000000000000000000000600052604160045260246000fd5b6000601f19601f8301169050919050565b7f526573756c7420686173206e6f74206265656e206465636c6172656420796574600082015250565b7f596f75206861766520616c7265616479206361737420796f757220766f746500600082015250565b7f596f7520617265206e6f7420656c696769626c6520746f20766f746500000000600082015250565b7f596f7520617265206e6f7420746865206f776e65720000000000000000000000600082015250565b7f496e76616c69642063616e646964617465000000000000000000000000000000600082015250565b7f43616e64696461746520616464656420746f20736d61727420636f6e7472616360008201527f7421000000000000000000000000000000000000000000000000000000000000602082015250565b61197e81611697565b811461198957600080fd5b50565b611995816116c3565b81146119a057600080fd5b5056fea2646970667358221220d60dbe3d576b1d127d31b0287203ddfe4bde112d69ca892baa949354f4933b3564736f6c63430008010033",
  "linkReferences": {},
  "deployedLinkReferences": {}
}